:100A360012085AD2AF120A7AC2AF12044F12092B09
:080A46001206EE12099280F283
:040A9F007F327E0024
:0B0AA300EF1FAC0670011E4C70F62225
:0208B700AD078B
:1008B900E4FBEBC39408748094805012C294ED1346
:1008C9009294120A9FD294EDC313FD0B80E47F32F8
:0508D9007E00020AA3ED
:10094F00E4FBEBC39408748094805014C294EDC3FD
:10095F0013FDD294309403430580120A9F0B80E25B
:02096F00AF05D2
:010971002263
:1008DE00C200D2947F787E00120AA3C2947F207E3B
:1008EE0003120AA3D2947F647E00120AA3A29492EA
:0608FE0000120A9FA20097
:0109040022D0
:1009AF00E4FEEEC3940874809480500FC297EF1347
:0B09BF0092A3EFC313FFD2970E80E756
:0109CA00220A
:100A6600C29300C29700D293001209AFAF051209D4
:040A7600AFC2932256
:1007AF00E4FDC29300C29700D293001209AFE4FF99
:1007BF00EFC39408748094805011C297EDC313FD5A
:1007CF0030A303430580D2970F80E5C29300C297F1
:0C07DF0000D29700C2A300D2A300AF0517
:0107EB0022EB
:040A0200D2A07F05FA
:100A0600000000000000000000000000000000AE32
:060A1600071FEE70EB2249
:0F0AAE00D2A3120A02C2A37F05120A06C2A02217
:0C0ABD00C2A3120A02D2A37F05020A069F
:02082500AD071D
:10082700E4FCECC39408748094805024C2A07F0534
:10083700120A06ED30E704D2A38002C2A37F051295
:100847000A06D2A0ED25E0FD7F05120A060C80D22C
:02085700C2A03D
:01085900227C
:10090500E4FCECC39408748094805017120A02ED3D
:1009150025E0FD30A303430501C2A07F05120A06A9
:050925000C80DFAF05AE
:01092A0022AA
:100A8D00120A02A2A3E433FDC2A07F05120A06AF2B
:010A9D000553
:010A9E002235
:100A4E00C2A0EF24FF92A37F05120A06120A02C269
:080A5E00A0D2A37F05020A06E5
:10044F00C2AF1208DED2AF7FCC1208B77F441208BA
:10045F00B77F107E27120AA3C2AF1208DED2AF7F7A
:10046F00CC1208B77FBE1208B712094F8F2B120993
:10047F004F7534008F35E535F534E52BF535E5341B
:10048F0054F87055E534C4F854F0C868F534E535C0
:10049F00C4540F48F535AE34FF7C007D0A1202CBF1
:1004AF008E348F35E52B540FFCE4120216E4FBFA61
:1004BF007920783F120106C004C005C006C007AC02
:1004CF0034AD35E4120211D003D002D001D00012A6
:0904DF00001512024A8E348F351B
:0104E80022F1
:100A7A005389F0438901758A18758CFCC28DD2A9F5
:030A8A00D28C22E9
:03000B0002065D8D
:10065D00C0E0C0F0C083C082C0D075D000C000C063
:10066D0001C002C003C004C005C006C007758A18CA
:10067D00758CFC7580FF1206A71209CB120A1CD0CF
:10068D0007D006D005D004D003D002D001D000D0C1
:0A069D00D0D082D083D0F0D0E0323C
:1007EC00EF603224FB601314601914601F24037033
:1007FC0027E5A0541F4480F5A022E5A0541F44A077
:10080C00F5A022E5A0541F44C0F5A022E5A0541F7A
:09081C0044E0F5A02253A01F22C4
:100972008C298D2AAE077580FF7F061207EC8E80C8
:100982007F017E00120AA37F071207EC852A8022CC
:1009E700C0F9A4B0999282F880908883C6A1868EB8
:0B09F700BF7FFF0102040810204080B9
:03088B00012F1723
:10057500052CE52C64057003752C01E52C24FE6023
:100585002114603114603C2403704D7521007522DF
:1005950005AE34AF357C007D641202DD8E238F24D9
:1005A5008036752100752206AE34AF357C007D0A94
:1005B5001202DD8018752100752206752300752449
:1005C500118015752100752207AE34AF357C007D8D
:1005D5000A1202DD8C238D2474FA2522F582740912
:1005E5003521F583E493FF74E72524F582740935F5
:0B05F50023F583E493FD7C00020972F3
:10034000E50CC4540F75F00AA4FFAEF0E50C540F91
:100350007C002FF522EC3EF521E50BC4540F75F01F
:100360000AA4FFAEF0E50B540F2FF524EC3EF52365
:10037000E50AC4540F75F00AA4FFE50A540F2FFFD5
:10038000EC35F0FE052DE52D64097003752D01E5B2
:100390002D14B40800400302042C9003A875F00348
:1003A000A4C58325F0C583730203C00203CC0203F6
:1003B000D80203E00203EE0203FA02040802041B5F
:1003C000E4F525F526AE21AF22FC804475250075A5
:1003D0002601AE21AF2280497525007526028020B6
:1003E000752500752603AE23AF247C008022752579
:1003F00000752604AE23AF248027752500752605D9
:1004000075270075281080247525007526067C0048
:100410007D0A1202DD8E278F288011752500752632
:10042000077C007D0A1202DD8C278D2874FA2526B0
:10043000F58274093525F583E493FF74E72528F5E3
:0F0440008274093527F583E493FD7C000209726D
:10060000052EE52E64037003752E01E52E24FE6091
:1006100016047026752100752206E52F75F00A84F0
:10062000752300F5248013752100752207E52F75C9
:10063000F00A84AFF07523008F2474FA2522F58226
:1006400074093521F583E493FF74E72524F582745A
:0D065000093523F583E493FD7C0002097257
:10088E00071880828486888A8C07118183858789E0
:0B089E008B8D070A29011501010122C2
:10085A00E4FD7F8E120A66E4F508C3E5089407747E
:10086A00809480501574182508F8E6FF740A250844
:10087A00F8E6FD120A66050880E07D807F8E020A8E
:01088A006607
:10092B00E4F509C3E509940774809480501574119C
:10093B002509F8E6FF1207AF740A2509F8A6070583
:03094B000980E040
:01094E002286
:10077100EF24FE601414601B1460222403702EC247
:10078100B0D2B3D2B2D2B1801CC2B1D2B3D2B2D242
:10079100B08012C2B2D2B3D2B1D2B08008C2B3D249
:0E07A100B2D2B1D2B0D2B4D2B5D2C2D2C4223A
:0308A900011F012B
:080AC9007F3B7E5ADEFEDFFCDC
:010AD1002202
:1009CB00E51F64017003020575E51F6402700302E5
:0C09DB000340E51F6403700312060022B5
:100992007F0112077120B414120AC920B40B051F7B
:0D09A200E51F64047003751F0130B4FD22D1
:1006EE007F0312077120B40B120AC920B402052F22
:1006FE0030B4FD7F0412077120B40B120AC920B466
:10070E0002152F30B4FDC3E52F946374809480409E
:10071E0003752F63D3E52F9409748094805003756D
:03072E002F09226E
:0A08AC00023200FF013000013100AC
:10073100ED4C701AEF14FF7E007401A807088005C4
:10074100C333CE33CED8F94233EE4232801EEF149A
:10075100FF7E007401A807088005C333CE33CED8CD
:10076100F9F4FFEEF4FEEF5233EE5232853380227C
:1006A7007F041207ECAE34AF357C007D0A1202DD01
:1006B700D3EF952FEE940040210530E53094647414
:1006C700809480401DE4F5306331FFE5316005E437
:1006D700FDFC80097D017C008003E4FDFC7F0112A5
:0706E7000731E4FF0207ECFC
:100A1C007F051207ECE52F64147006D284D2868011
:0A0A2C0004C284C286E4FF0207EC56
:10000E000202B6E86480F8E933E83360110460F068
:10001E00ED33EC337009E8FCE9FDEAFEEBFF220458
:10002E0060DED3EB9FEA9EE99DE8C2E78CF0C2F753
:10003E0095F0400CE8CCF8E9CDF9EACEFAEBCFFB1F
:10004E0012028185D0F05804700320D5B3E80470F5
:10005E00075002B2D50202C092D5EC0460F7E4CC90
:10006E00C0E0C398F8603B94186008400DD0E0FBE8
:10007E00020298E4FBFAC9FC8028E830E406E4C9E1
:10008E00FBE4CAFCE830E305E4C9CACBFCE854073C
:10009E006010F8C3E913F9EA13FAEB13FBEC13FC47
:1000AE00D8F130F52FC3E49CFCEF9BFFEE9AFEEDEA
:1000BE0099FDD0E0FBEF4E4D4C701222DB03020295
:1000CE00BDEC2CFCEF33FFEE33FEED33FDED30E7F0
:1000DE00EB020298EF2BFFEE3AFEED39FDD0E0FB7E
:1000EE0050130BBB00030202C0ED13FDEE13FEEF27
:0800FE0013FFEC13FC02029851
:10010600EC4D6011E8497017ED33EC3304600DE4F3
:10011600FCFFFEFD22E933E8330470F80202B61252
:10012600028158046009E4CC248150062850090253
:1001360002C02840030202BDC0E0EB4A7044B98009
:1001460006D0E0FB0202ACEF4E701CBD8008EBFF50
:10015600EAFEE9FD80EBE98DF0A4FEE5F00201EF91
:10016600E9CDF9EAFEEBFFEF89F0A4FCE5F0CE89D4
:10017600F0A42EFFE435F0CD89F0A42DFEE435F091
:100186008067EF4E7005BD80D780C3EF8BF0A4ACBF
:10019600F0EE8BF0A42CFCE435F0F8EF8AF0A42CFA
:1001A600E5F038FCE433CB8DF0A42CFCE5F03BF80D
:1001B600EE8AF0A42CFCE5F038F8E433CF89F0A4FD
:1001C6002CFCE5F038CF3400CE89F0A42FFFE5F003
:1001D6003EFEE433C98DF0A42EFEE5F039CD8AF05B
:1001E600A42FFFE5F03EFEE43DFD33D0E0FB5007D3
:1001F6000BBB000F0202C0EC2CFCEF33FFEE33FE0C
:06020600ED33FD02029839
:10020C0075F020800E75F010800575F0087D007E6D
:10021C00007F003392D530D503120332EC334010FB
:10022C00EF33FFEE33FEED33FDEC33FCD5F0ED2276
:0E023C00E5F0247EA2D513CC92E7CDCEFF22B2
:10024A00EDD2E7CD33EC3392D524814006E4FFFEAC
:10025A00FDFC22FCE4CFCECDCC24E0501174FF800B
:10026A00EDC3CC13CCCD13CDCE13CECF13CF0470A8
:07027A00F030D5DE02033273
:10028100E9D2E7C933E833F892D5EDD2E7CD33ECC3
:0702910033FC5002B2D5223C
:10029800EC30E7100FBF000C0EBE00080DBD0004C7
:1002A8000BEB6014A2D5EB13FCED92E7FD2274FF73
:1002B800FCFDFEFF22E480F8A2D574FF13FC7D80CC
:0302C800E480EFE0
:030000000204E90E
:0C04E900787FE4F6D8FD758135020530FF
:1002CB00EF8DF0A4A8F0CF8CF0A428CE8DF0A42E47
:0202DB00FE2201
:1002DD00BC000BBE0029EF8DF084FFADF022E4CC05
:1002ED00F875F008EF2FFFEE33FEEC33FCEE9DECCE
:1002FD00984005FCEE9DFE0FD5F0E9E4CEFD22ED14
:10030D00F8F5F0EE8420D21CFEADF075F008EF2F5D
:10031D00FFED33FD4007985006D5F0F222C398FD4E
:05032D000FD5F0EA22EB
:0E033200C3E49FFFE49EFEE49DFDE49CFC22DC
:1004F500020A36E493A3F8E493A34003F68001F2DD
:1005050008DFF48029E493A3F85407240CC8C33307
:10051500C4540F4420C8834004F456800146F6DFD6
:10052500E4800B010204081020408090088BE47ED3
:10053500019360BCA3FF543F30E509541FFEE493CB
:10054500A360010ECF54C025E060A840B8E493A392
:10055500FAE493A3F8E493A3C8C582C8CAC583CABD
:10056500F0A3C8C582C8CAC583CADFE9DEE780BE75
:0108B6000041
:00000001FF
